:100000000C941D040C943A040C943A040C943A0495
:100010000C943A040C943A040C943A040C943A0468
:100020000C943A040C943A040C944E2B0C940A2B26
:100030000C944B2C0C943A040C943A040C943A040F
:100040000C943A040C943A040C943A040C943A0438
:100050000C943A040C94272C0C943A040C943A0413
:100060000C943A040C94C5340C94A2340C943A04C5
:100070000C943A040C943A040C943A040C943A0408
:100080000C943A040C943A040C943A040C943A04F8
:100090000C943A040C943A040C943A040C943A04E8
:1000A0000C943A040C943A040C943A0405010902A5
:1000B000A10185020901A100050919012905150001
:1000C00025019505750181029501750381010501E1
:1000D000093009311581257F950275088106093897
:1000E0001581257F950175088106050C0A380215D2
:1000F00081257F950175088106C0C005010980A191
:1001000001850319012AB700150126B7009501756D
:10011000108100C0050C0901A101850419012AA064
:1001200002150126A002950175108100C005010984
:1001300006A1018506050719E029E71500250195A7
:1001400008750181020507190029EF1500250195A1
:10015000F0750181020508190129059505750191C0
:1001600002950175039101C00660FF0961A10109B3
:1001700062150026FF0095207508810209631500AD
:1001800026FF00952075089102C005010906A1010E
:10019000050719E029E71500250195087501810279
:1001A0009501750881010507190029FF150026FF33
:1001B0000095067508810005081901290595057542
:1001C000019102950175039101C0FD377A585A00DB
:1001D0000004E6D6B4460200210116000000742F88
:1001E000E5A3E006E601815D003D8889C65436C37B
:1001F000174FE4E5925EFB2C861ECBB1760CFD3AE0
:10020000848A3B3C8865A6ADB70EED04A3C87BC3CA
:10021000F4B59FF13D6BEC915906966319D20CEE43
:1002200010BE81DEA9A64023DBDB176CE95EA78D3B
:10023000B024C94F5523CC808531D6779ED5E8E3CD
:100240009102EC5A3D2FA564F62FE0AFD12F5A79D9
:1002500047DEF10A3A11F486949DF9EB0C622B26E5
:10026000957AE35D9C2E91304A654E093B32D1125E
:10027000B59F3BA2357785DC28B108D8CC3ABA1FA8
:10028000DEA3B3F6159AD1EAAC38854D27988E4592
:10029000576A6EF5471ED57E3D7550CDDA478AD335
:1002A000A550D4914041E14FEC333143450EDDDCA4
:1002B00043D76B187B5633C3153B482DEA66B1E430
:1002C000B972CF2595C2521068EE31DCCBC16AC736
:1002D000433C0684D7A9035C5AA3ED20CB6A802750
:1002E0003E6F3422AB638EB5FFEF424AF33DAF88D9
:1002F000A7A33D829BA821ABA4D2D1BD911B88B3FB
:10030000923B3FEDB817B58837738FEB61F5ABD6ED
:1003100033F4C14C96AB238E15F62A5299394157C6
:100320008EA155B51EDAF12C72C9318967C285805C
:100330000FE9F5C4B5C26A613A88A2EB567C8A52CD
:10034000FBC3F27D758F75670D36D7B6F98FE04B1D
:10035000A5EA24B2184DE825DFEAE934C976999A6E
:10036000EE7CFE752A3C1FE2D784000000000A657F
:100370003C8AF9BBD31400019D03E70D0000424104
:100380007D66B1C467FB020000000004595A354283
:100390001E001F00200021002200015101512300F6
:1003A00024002500260027002D422B0014001A00EF
:1003B0000800150017002F0030001C0018000C006A
:1003C000120013002E002900040016000700090087
:1003D0000A004B434D430B000D000E000F0033008D
:1003E0003400E1001D001B000600190005004E004E
:1003F0004A0011001000360037003800E500E30025
:1004000057005600556431612A004C0028002C002A
:10041000E6005000510052004F0001003A003B003E
:100420003C003D003E00010001003F004000410053
:1004300042004300000001001E021F022F02300292
:1004400031020100010054005F00600061005600AD
:1004500000000100200221022F00300035000100C1
:10046000010055005C005D005E00570000000100C7
:1004700022022302260227023502010001000000A9
:1004800059005A005B005800000001000100010003
:100490000100010001000100010001006200620092
:1004A000630058000000010001000100010001008C
:1004B0000100010001000100010001000100010034
:1004C000010000000000F0000000F9000000010041
:1004D000010000000000000000000000000000001B
:1004E000F200F100F300FA000000010000005000EB
:1004F000510052004F00000000000000000000000A
:1005000000000000000001000100000000000000E9
:100510000000000000000000000000000000F400E7
:10052000F5000100010001000000000000000000D3
:10053000000000003A003B003C003D003E0000008F
:1005400000003F0040004100420043000000000066
:10055000005C00000000000000000000000000003F
:10056000000000000000000000000000000000008B
:100570000000000000000100010000000000000079
:10058000000000000000000000000000000000006B
:10059000000000000000000000000000000000005B
:1005A000000000000000000000000000000000004B
:1005B000000000000000000000000000000001003A
:1005C00001001A03EE0E210F0000020002001603C4
:1005D000EE0E210F0000030001001B03EE0E210FA1
:1005E0000000040002000003EE0E210FF0070500DA
:1005F00001001C03EE0E210F0000060002000203A2
:10060000EE0E210F0000070002001803EE0E210F6E
:100610000000080001001D03EE0E210F000009007C
:1006200002000403EE0E210FCB070A0002000603AE
:10063000EE0E210FCB070B0002000803EE0E210F78
:10064000CB070C0002000A03EE0E210FCB070D00B2
:1006500002000C03EE0E210FCB070E0002000E036A
:10066000EE0E210FCB070F0002001003EE0E210F3C
:10067000CB07100002001203EE0E210FCB07110072
:1006800002001403EE0E210FCB07120002001E031E
:10069000EE0E210F0000130002002003EE0E210FCA
:1006A0000000140001002203EE0E210F00001500CF
:1006B000000000005107E915000009025B0003017A
:1006C00000A0FA0904000001030101000921110141
:1006D0000001224000070581030800010904010010
:1006E0000203000000092111010001222200070578
:1006F0008203200001070503032000010904020012
:10070000010300000009211101000122BC000705BE
:1007100084032000011201000200000008444D572C
:10072000520100010203011C037600690061006CA4
:10073000003A006600360034006300320062003385
:1007400000630000001E035200650064006F007823
:1007500000200057006900720065006C006500739E
:1007600000730000001E034D0061007400740069F6
:100770000061002000440061006C00200042006520
:10078000006E0000000403090400000000000000E7
:100790000000000000000000000000000000000059
:1007A000000000000000000000000000007E0F00BC
:1007B000D4FFFFFFC7000000780000000000000029
:1007C000002A2B28000000000000000000000000AC
:1007D0000000000029000000002C1E3420212224EB
:1007E000342627252E362D3738271E1F2021222379
:1007F0002425263333362E37381F0405060708090B
:100800000A0B0C0D0E0F10111213141516171819D0
:100810001A1B1C1D2F3130232D350405060708092E
:100820000A0B0C0D0E0F10111213141516171819B0
:100830001A1B1C1D2F3130354C0011241FBECFEF69
:10084000DAE0DEBFCDBF25E0A2E6B1E001C01D9237
:10085000A034B207E1F711E0A0E0B1E0E4E4FCE687
:1008600002C005900D92A236B107D9F70E94722CF2
:100870000C94F5350C940000E8EDF0E080818E7F5B
:1008800080831092E2001092DA001092E100A0EE54
:10089000B0E08C9181608C9380818F77808319BCCC
:1008A000A7EDB0E08C918E7F8C9380818F7E8083CA
:1008B0001092CB0308952091E4003091E50095E675
:1008C000A9012091EC00822F817020FF06C0809149
:1008D000E80080FF06C080E008952091E80022FD36
:1008E0001AC08091F903882389F0853089F08091BE
:1008F000EB0085FD0FC02091E4003091E500421728
:100900005307F9F29150E1F684E0089582E00895EA
:1009100083E0089581E00895EF92FF920F931F9373
:10092000CF937C018B010E945B04C82F811117C0FB
:100930008091E80085FD0BC08091E8008E77809360
:10094000E8000E945B04882399F3C82F08C0F701D0
:1009500081917F018093F1000150110949F78C2F9B
:10096000CF911F910F91FF90EF900895CF93FC01CD
:100970008091F903843001F5C091E900CF70209196
:10098000EC00922F917020FD90E8C92B82E08093BB
:10099000E9008091E80080FF0CC050E040E060E298
:1009A00070E0CF010E948C048091E8008E778093E4
:1009B000E800CF70C093E900CF9108958091F103D2
:1009C00087FF13C08091E80082FF06C08091E80095
:1009D0008B778093E80004C08091F9038111F2CFF6
:1009E00008958091F9038823D9F38091E80080FF6E
:1009F000F8CF8091E8008E77ECCF982F9093E900A4
:100A0000242F762F50E0891731F07091EC0020915F
:100A1000ED005091F00021FD07C09F5F973071F706
:100A20008093E90081E008953091EB003E7F3093A0
:100A3000EB003091ED003D7F3093ED003091EB0005
:100A400031603093EB007093EC002093ED005093F5
:100A5000F0002091EE0027FDE0CF80E00895B0E0A7
:100A6000A0E0E5E3F5E00C944835C8EDD0E08881DE
:100A70008F7E8883E7EDF0E080818160808384E071
:100A800082BF81E08093CB0388818E7F888302EED2
:100A900010E0F80110821092DA0081EEC82ED12CFD
:100AA000F601108288818F778883888180688883A7
:100AB00088818F7D888319BC1092F9031092F0030E
:100AC0001092EF031092EE0390EEE92EF12CF70155
:100AD00080818B7F808388818160888342E060E0B1
:100AE00080E00E94FD04F60180818E7F8083F80102
:100AF000808181608083808188608083F70180812C
:100B00008E7F8083888180618883CDB7DEB7E8E0FF
:100B10000C946435FC018091F7039091F8038617DB
:100B20009707A0F06115710529F49091E8009E7770
:100B30009093E80090E06115710551F4911108C09F
:100B40008091E80082FF34C080E00895BC01F2CFBC
:100B50008091F9038823C1F18530C1F18091E800CB
:100B600083FD30C08091E80082FDEACF8091E800EB
:100B700080FFE1CF8091F3002091F200382F6115C2
:100B8000710519F02830310558F091E02830310511
:100B900009F090E02091E8002E772093E800CBCF79
:100BA00081918093F100615071092F5F3F4FE7CF32
:100BB0008091F903882341F0853041F08091E8006D
:100BC00083FFBECF81E0089582E0089583E0089519
:100BD00008958091CD03089587E797E790930108E2
:100BE0008093000888E19AE00FB6F894A895809366
:100BF00060000FBE90936000FFCF9C014FB7F89448
:100C00008091C2039091C303A091C403B091C50326
:100C10004FBF821B930B08952FB7F8946091C203C6
:100C20007091C3038091C4039091C5032FBF0895B1
:100C30002FB7F8948091C2039091C303A091C4038D
:100C4000B091C5032FBF0895209119012223C1F04F
:100C50002091C60327FF14C0E62FE695E695E6959A
:100C6000EE31F8F4E80FF92FF11D677021E030E064
:100C700001C0220F6A95EAF78281822B8283089550
:100C8000FC0132962FEF30E04191641751F02F3F75
:100C900019F4411101C0232F3F5F3630A9F72F3FD0
:100CA00009F40895820F911D27FD9A95FC01628336
:100CB00008952091BF033091C0032817390771F0C0
:100CC0009093C0038093BF03E091BD03F091BE03F6
:100CD000309721F00084F185E02D09950895209149
:100CE000BB033091BC032817390771F09093BC0304
:100CF0008093BB03E091BD03F091BE03309721F0D8
:100D00000680F781E02D09950895E091BD03F091EB
:100D1000BE03309729F00190F081E02D09950895E8
:100D200080E00895CF93DF93EC014091AE035091A2
:100D3000AF036091B0037091B1032FB7F894809125
:100D4000C2039091C303A091C403B091C5032FBF08
:100D5000841B950BA60BB70B843F9140A105B105F1
:100D600018F58091AE039091AF03A091B003B091BC
:100D7000B1038093AA039093AB03A093AC03B09309
:100D8000AD0384EF91E0A0E0B0E08093A6039093E0
:100D9000A703A093A803B093A903D093B603C0936D
:100DA000B503DF91CF9108950E940C066093AA03CA
:100DB0007093AB038093AC039093AD0382E390E018
:100DC000A0E0B0E0E2CFFC018481862351F492815F
:100DD0009923B9F06923808583FF05C081E0611103
:100DE0000FC080E00895892F8F7092959F70982B87
:100DF000862F8F7062956F70682B81E09613F1CF0C
:100E0000089581E0FDCF452B39F0682381E06F3FE5
:100E100009F080E08170089581E0FCCFDC016091F1
:100E2000A2038091A303962F891301C00895292F4F
:100E300030E0F901EE0FFF1FE656FC4F4081518173
:100E40004A175B07A1F487E08A9FA0018B9F500D92
:100E5000112444575C4F81E0FA0184839613E6CF56
:100E60002F5F3F4F237033272093A20308952F5FF6
:100E70003F4F922F9370D8CF1092290310922803DE
:100E800080919103811104C01092900310929203FB
:100E900080919803811104C01092970310929903D6
:100EA0000895B0E0A0E0E7E5F7E00C9446358FEF59
:100EB0009FEF4430510508F469C04091C60341FBDF
:100EC000882780F990E0880F991F42FB002700F9DE
:100ED00010E0000F111F000F111F802B912B40FB02
:100EE000CC24C0F8D12C8C299D2943FB222720F942
:100EF000C22FE0E0DE2F53E0CC0FDD1F5A95E1F763
:100F00008C2B9D2B44FBAA27A0F9B0E0E4E0AA0FAC
:100F1000BB1FEA95E1F78A2B9B2B45FBEE27E0F9F7
:100F2000F0E0A5E0EE0FFF1FAA95E1F78E2B9F2BB7
:100F300046FB222720F930E0B6E0220F331FBA9596
:100F4000E1F7822B932B47FB222720F930E03695DF
:100F5000322F222737952795822B932B2091C70379
:100F6000322F3170F32EE82EF92A26952170B22EF9
:100F7000BB0CA82EBF28C501BB0CAA0BBB0BFB01E9
:100F800080839183A283B38390E080E0CDB7DEB706
:100F9000EAE00C946235E0E0F3E0848195812AE098
:100FA00030E0B9010E940935609314018681809375
:100FB00013018285809312018485809311018685B7
:100FC0009785B9010E94093560931001808980934B
:100FD0000F01828980930E01848980930D01089509
:100FE0008091000390910103909316018093150165
:100FF0000895E2E6F2E04FE65AE25783468326E997
:101000003AE23187208784EE99E2938782871586BA
:101010001486558B448B378B268B918F808F81E084
:1010200090E0938F828F089581152CE5920741F40B
:101030002091D9023091DA02232B11F490E080E064
:1010400008950E9418069C019091520280915302CB
:10105000982B21F030934F0220934E02909154022E
:1010600080915502982B21F030934D0220934C0231
:10107000E091BD03F091BE03309749F082E0809388
:1010800050020480F581E02D80E592E009950895F5
:1010900090915202803F59F48091530287FF0DC016
:1010A0001092530291110BC010924A0208C0813F66
:1010B00081F48091530218169CF3992381F080915A
:1010C000540290915502892B09F064C01092490294
:1010D0000895823F49F497FFF0CF10925202809119
:1010E00053028111ECCFE0CF833F19F41916ACF312
:1010F000E4CF20915402893F29F41216F4F610929D
:101100005402DBCF8A3F19F427FFD7CFF8CF2091C5
:1011100055028B3F29F427FFD0CF10925502CDCF37
:101120008C3F19F41216CCF3C8CF843F31F4809170
:1011300051028E7F80935102C0CF853F21F4809170
:1011400051028D7FF7CF863F21F4809151028B7F32
:10115000F1CF873F21F480915102877FEBCF883F09
:1011600021F4809151028F7EE5CF8D3F31F4809143
:101170004B028E7F80934B02A0CF8E3F21F4809153
:101180004B028D7FF7CF8F3F09F097CF80914B02B5
:101190008B7FF0CF089580914B0280FF0CC060914F
:1011A0000E0170E0759567957595679561157105E8
:1011B00049F1862F089581FF06C060910E0170E00D
:1011C00075956795F3CF60910E0182FD0BC09091EC
:1011D00049029923A1F060910D0180910E019617AB
:1011E00038F0682F70E06038710500F38FE70895DC
:1011F000899FC001112470E00E941D35F4CF61E089
:1012000070E0D7CF81E0089580914B026091080390
:101210007091090380FF16C020911201269FC00122
:10122000279F900D1124BC0176956795769567955B
:101230006038710508F043C06115710509F441C0BB
:10124000862F089581FF0BC020911201269FC001B7
:10125000279F900D1124BC0176956795E9CF82FFF9
:1012600009C0809112019B01829FB001839F700D84
:101270001124DECF20914A022223D1F29091110154
:1012800080911201482F50E0291748F0CB01849F2C
:10129000B001859F700D949F700D1124C9CF289FB8
:1012A00090011124269FA001279F500D369F500DBD
:1012B0001124692F70E0CA010E940935B9CF8FE768
:1012C000089581E00895803F31F40E9404098195DA
:1012D000809353020895813F19F40E940409F8CFC6
:1012E000823F31F40E94040981958093520208954F
:1012F000833F19F40E940409F8CF893F29F40E9422
:10130000CB088093540208958A3F21F40E94CB08B1
:101310008195F7CF8B3F31F40E94CB088195809364
:10132000550208958C3F19F40E94CB08F8CF843FF2
:1013300031F4809151028160809351020895853F7C
:1013400021F4809151028260F7CF863F21F4809191
:1013500051028460F1CF873F21F48091510288606F
:10136000EBCF883F21F4809151028061E5CF8D3F22
:1013700031F480914B02816080934B0208958E3F3F
:1013800021F480914B028260F7CF8F3FB9F78091B3
:101390004B028460F1CF80E008959091C60392FFE4
:1013A00006C0282F28712830F9F4877F846093FFC6
:1013B00006C0282F28712831F1F4877E846120919E
:1013C000C70320FF06C0382F38713830D9F4877F23
:1013D000816021FF06C0282F28712831D1F4877E33
:1013E000816194FD877E0895282F24712430F9F6B9
:1013F0008B7F8860DCCF282F2471243101F78B7E0E
:101400008861DDCF382F3171313019F78E7F8860D8
:10141000E0CF282F2171213121F78E7E8861E1CF25
:10142000CF93DF93EC0182389105B1F108F040C011
:101430008133910509F49DC048F58932910509F47D
:101440008DC08A9709F49CC0C11521E5D20708F028
:10145000C3C0C11530E5D30708F01EC1C83ED10591
:1014600008F0A3C0C13ED10588F5C83AD10508F0FF
:101470008EC0C53AD10508F007C1C130D10531F1A0
:10148000209721F1C430D10508F545C08533910579
:1014900009F45FC0C997C1F68091C603837009F053
:1014A00044C18091C70383FF11C0C9E2D0E00EC0E0
:1014B000833E910599F170F4803E910501F1823EE1
:1014C000910511F68091C60382FD21C0CE01DF9106
:1014D000CF910895863E910561F1873E910571F1A6
:1014E000843E910509F0B0CF8091C70381FFEECF14
:1014F0008091C603C7EED0E084FD0DC0E7CF809198
:10150000C60380FD33C09091C70390FFDFCFC3EEC9
:10151000D0E084FFDBCFD0E0C0E0D8CF8091C6031D
:1015200082FD00C19091C70390FDFFC084FFCECF24
:10153000F2CF8091C60383FDDDCFC8CF8091C60373
:1015400083FDF6C09091C70391FFF0CFC4EED0E0C9
:10155000BDCF8091C60385FFB9CFA7CF8091C603C9
:1015600085FDE9C08091C70383FFB0CFC9E3D0E018
:10157000ADCF8091C60386FFA9CFCAE2D0E0A6CF47
:101580008091C60386FFA2CFC1E3D0E09FCFCF3BBF
:10159000D10508F6C85AD0E0CC0FDD1FCB5DDE4F79
:1015A0000990D881C02DD46491CFC11540E2D407F1
:1015B00058F4C11581E0D80708F088CFC03FD105A5
:1015C00008F4A9CFD06582CFC11520E4D20708F472
:1015D000A2CFDF70D06A7ACFC11535E5D30718F5F1
:1015E000C11544E5D40708F085C0C11583E5D807C7
:1015F00008F06CC0C11522E5D20708F462C0CE0124
:101600008370992721E030E002C0220F331F8A95B2
:10161000E2F7C695C69580E2C89FE0011124C22B6F
:10162000D32BDC6853CFC11539E5D307A8F4C11516
:1016300048E5D40708F063C0C11586E5D80708F06F
:101640006ACF8C2F0E94CD09C82FD0E0DC2FCC2789
:10165000CC27DF71D0623ACFC1152AE5D20708F452
:1016600053C0CE0190568115904208F054CF8D2F73
:101670008F710E94CD0990E0982F882788279F714D
:101680009C012C2BE901E6CFC55AD0E0CE5DDE4FA0
:10169000C881D0E0D0641ACF2C2F269526952370D0
:1016A00040E2249F900111248C2F8370C1E0D0E090
:1016B00002C0CC0FDD1F8A95E2F7C22BD32BDD6869
:1016C00005CFDC2FCC27C16FD06A00CFCE0183704D
:1016D000992721E030E002C0220F331F8A95E2F7FC
:1016E000C695C69540E2C49FE0011124C22BD32BBE
:1016F000DA68ECCEDC2FCC27C46FD06AE7CEDC2FC3
:10170000CC27C06FD06AE2CE8C2F8F700E94CD099B
:1017100034E0D695C7953A95E1F7CF709C2FEC0150
:10172000D069D4CEC2EED0E0D1CEC0EED0E0CECEE5
:10173000C6EED0E0CBCEC5E3D0E0C8CE8091140297
:10174000882331F0109214021092130210921202A8
:101750000895CF93C82F8091C70382FF0CC080915A
:1017600014028C1741F00E94180690931302809384
:101770001202C0931402CF91089580959091FB03BB
:1017800098239093FB03089580959091DF0298230E
:101790009093DF0208959091DF02892B8093DF02FE
:1017A00008951092F1011092F0011092EF01089546
:1017B0008091020390910303892B89F00E941806FF
:1017C0002091120230911302AC01421B530B81E0B5
:1017D00020910203309103034217530708F480E07D
:1017E00081700895909119019923D1F09091C603C9
:1017F00097FF16C0E82FE695E695E695EE31E0F402
:10180000F0E0EC59FE4F282F277081E090E001C0F6
:10181000880F2A95EAF7809592818923828308951B
:10182000E6E6F1E09191891303C0DF0111971C9264
:1018300091E0EC36F907B1F708952091EE0190910F
:10184000AD01291302C080E0089530E0F90153E0B2
:10185000EE0FFF1F5A95E1F7E255FE4F51815613E7
:1018600006C05081581303C05281541304C02F5F27
:101870003F4F2770E6CF81E008958091EE0190916F
:10188000AD01981301C008958F5F8770FACF292F9B
:10189000953078F58E3068F590E03EE0239F800D1E
:1018A000911D1124682F677023E0969587952A95DE
:1018B000E1F7FC01EE0FFF1FE80FF91FE657FE4F9F
:1018C00050E040E080E0219130E0062E02C03695E5
:1018D00027950A94E2F721703327042E01C0220FC6
:1018E0000A94EAF7822B4F5F5F4F4330510559F757
:1018F000089580E00895292F953098F58E3088F569
:1019000090E03EE0239F800D911D1124282F277029
:1019100041E001C0440F2A95EAF723E096958795A8
:101920002A95E1F7FC01EE0FFF1FE80FF91FE657BC
:10193000FE4F30E020E070E05191DF011197CB01C4
:10194000022E02C0969587950A94E2F781708195E0
:101950008527842385278C932F5F3F4F23303105C4
:1019600059F7089592959F70963091F058F4925FD0
:101970009F70923058F4803F19F030F4883E30F474
:1019800081E008959A5FF4CF843FD1F380E0089519
:10199000883EB0F3813FD1F7F3CF982F92959F7097
:1019A00011F0892F94E0282F2695269511F09E5F3F
:1019B000822F869509F09F5F892F08959C013A95A3
:1019C00021153F4150F5FC01EE27F170BC0166275F
:1019D0007270AC01442754709C012227387094FF28
:1019E0000EC080E1EF2B09F480E0672B09F08062E4
:1019F000452B09F08064232B89F08068089581E0ED
:101A0000EF2B09F480E0672B09F08260452B09F089
:101A10008460232B19F08860089580E00895CF93A7
:101A2000C82F0E94CD0C813061F0882339F08230BC
:101A300061F0833079F08C2FCF9108958D9A599A67
:101A400002C08D9A59988C9A03C08D9A599A8C9895
:101A5000589AF1CF8D98F3CF8093C8037093CA033F
:101A60006093C9038091F9038430F9F48093E9000D
:101A70008FEF9091E800815095FD06C095ED9A9505
:101A8000F1F700008111F5CF8091E80085FF0DC0CE
:101A900050E040E063E070E088EC93E00E948C044A
:101AA0008091E8008E778093E8000895BC0184E07F
:101AB0000E942C0D0895BC0183E00E942C0D089516
:101AC0009C0184E08093E9009FEF8091E8009150B1
:101AD00085FD06C085ED8A95F1F700009111F5CFDF
:101AE0008091E80085FF0CC050E040E066E070E0C7
:101AF000C9010E948C048091E8008E778093E800F1
:101B00000895CF93DF93EC01809119018823B1F1FF
:101B10008091C60387FF32C060E284E08093E900D1
:101B20008FEF9091E800815095FD06C095ED9A9554
:101B3000F1F700008111F5CF8091E80085FF1BC00F
:101B40008091190170E050E040E0811104C050E044
:101B500040E068E070E0CE010E948C048091E800D3
:101B60008E778093E80080E2FE01AEECB3E0019056
:101B70000D928A95E1F7DF91CF91089568E081E0B9
:101B8000CDCF019708F40895EFE9FFE03197F1F721
:101B900000C00000F6CF0F931F93CF93DF9300E0B8
:101BA00013E0C7E5D2E0CE010E94AB35F801819386
:101BB0008F012196CB37F2E0DF07A9F7C8ECD5E01B
:101BC000FE0185919491009711F0FC0109952C96E6
:101BD000F6E0C43CDF07A1F7DF91CF911F910F9191
:101BE00008950F931F93CF93DF93843030F56530C2
:101BF00020F54E3010F5C42FD0E0CC0FDD1F2CE1C6
:101C0000629FC00DD11D11243CE8839FC00DD11DE2
:101C10001124CE0187960E94AB35082F10E0102FBB
:101C20000027CE0188960E94AB359801282BC90168
:101C3000DF91CF911F910F91089590E080E0F8CF50
:101C4000462F2091DD023091DE02232B99F4703F64
:101C500039F4603F79F48091DB029091DC020895C1
:101C6000843040F4753030F46E3020F4672F0E94D9
:101C7000F10D089590E080E00895CF92DF92FF92F9
:101C80000F931F93CF93DF936C010091FA03809120
:101C90001502082BC7E0D0E010E0FC2EC8010C2E86
:101CA00002C0959587950A94E2F780FD0CC02197B4
:101CB000A0F7F12C8F2DDF91CF911F910F91FF9005
:101CC000DF90CF900895B6018C2F0E94200E0E94C5
:101CD000100A019761F3EECFCF93DF93EC010E94DE
:101CE0003D0EBE010E94200E0E94100ADF91CF918E
:101CF0000895CF93DF93EC014B815C8169818881EA
:101D00000E940307811110C08E819F81009739F0D6
:101D10000E94100A0E94B20CDF91CF910895888131
:101D200099810E946C0EF6CF80E0F6CFA5E0B0E07E
:101D3000ECE9FEE00C944D3549835A8389819A8100
:101D4000662399F0222389F00E943D0E182F682FF8
:101D500089819A810E947B0C69817A81812F0E94FE
:101D6000200E2596E3E00C9469350E94470C182F4D
:101D7000F3CFFC01262F86819781009739F44081AB
:101D800051816281738184810E94960E089583E25D
:101D900090E00E94AB358A3589F484E290E00E949D
:101DA000AB358B3259F485E290E00E94AB3591E07F
:101DB000863209F090E0892F8170089580E0FCCF91
:101DC000CF9384E090E00E94AB35C82F82E290E090
:101DD0000E94AB35982F8C2FCF910895DB01FC0129
:101DE0003296259134914217530758F0FC013496EE
:101DF00065917491A901CD010E948B3590E080E03E
:101E000008958FEF9FEF08950F931F93CF93DF9364
:101E100000E013E0C7E5D2E0CE010E94AB35F80147
:101E200061918F01681719F0CE010E94B935219692
:101E3000CB37F2E0DF0781F7DF91CF911F910F9150
:101E40000895DA019C012E5F3F4FF90145915491AD
:101E5000F90125913491A217B30758F0FC0134968B
:101E6000859194910E948B350E94040F90E080E050
:101E700008958FEF9FEF0895CF93DF93CBECD2E0DF
:101E800060E0CE010E94B9352196C11584E0D807E3
:101E9000B9F7DF91CF9108951F93CF93DF93122F5E
:101EA0008430E0F46530D0F44E30C0F4C42FD0E07C
:101EB000CC0FDD1F9CE1699FC00DD11D11249CE852
:101EC000899FC00DD11D1124632FCE0187960E94DA
:101ED000B935612FCE0188960E94B935DF91CF9137
:101EE0001F910895CF93C82F6FEF81116AE583E2A8
:101EF00090E00E94B9356FEFC1116BE284E290E08F
:101F00000E94B9356FEFC11166E285E290E00E9450
:101F1000B935CF910895CF93C92F682F84E090E011
:101F20000E94B9356C2F82E290E00E94B935CF91C2
:101F300008959B01823070F49AE0899FB0011124CA
:101F400065587D4F4AE050E0C9010E949B3590E002
:101F500080E008958FEF9FEF0895AAE0B0E0E3EBF3
:101F6000FFE00C944E359C0137552F3F310509F0A9
:101F700068F4BE016F5F7F4F0E94990F892B31F487
:101F800089859A852A96E2E00C946A358091180337
:101F900090911903F7CFAAE0B0E0E1EDFFE00C94D7
:101FA00044350DE912E083E9C82E82E0D82E93EA89
:101FB000E92E92E0F92E27E0922E32E9A32E32E0AC
:101FC000B32E88248394D6010D931D936D014AE0AE
:101FD00050E0B701CE0101960E949B35F80138967A
:101FE000DF01892D1D928A95E9F789819A81D801AF
:101FF00011969C938E938F8112968C9312978D815C
:1020000013968C931397888514968C9314978985CF
:1020100015968C9315978B819C8117969C938E9324
:10202000169718961C9218978A8587FF3CC01E96B3
:102030001C921E921D9780FF03C0D80118968C92A7
:1020400081FF04C0F80190859260908782FF07C0ED
:10205000D80118969C911897946018969C9383FFCA
:1020600004C0F80190859860908784FF07C0D8016C
:1020700018969C911897906118969C9385FF04C0C0
:10208000F801808580628087015F1F4FFAE0EF0EC4
:10209000F11C8BECE81682E0F80609F094CF2A9642
:1020A000ECE00C946035F801B686A586C4CFAAE0B2
:1020B000B0E0EDE5F0E10C944C35EEE7F2E084E1C0
:1020C000DF011D928A95E9F72EE833E08CE0D90113
:1020D0001D928A95E9F70CE813E0D801ED93FC9383
:1020E0004AE050E06FE872E0CE0101960E949B3515
:1020F00088E0FE013196AEE7B2E001900D928A953C
:10210000E1F789859A85F8019383828388E892E0D4
:10211000908787834AE050E069E972E0CE0101963A
:102120000E949B3588E0FE013196A8E8B2E001905C
:102130000D928A95E1F789859A85D8011A969C9324
:102140008E9319972A96E4E00C946835CF9380918A
:10215000DF029091FB03892B80936401809114022C
:10216000882329F18091020390910303892B29F0A0
:102170000E94D80B81110E949E0B80916401909166
:102180001402892B8093640180911901882309F43A
:1021900047C08091C60387FF43C08EE1E6E6F1E0C9
:1021A00090E0815008F03EC091110E949E0BC091BA
:1021B000B203C09580916401C8238091B303C82BFA
:1021C000C093640140E250E062EF71E084E691E088
:1021D0000E947E35892B11F180E2E4E6F1E0A2EF66
:1021E000B1E001900D928A95E1F7E091BD03F09185
:1021F000BE03309799F080911901882349F08091AE
:10220000C60387FF05C0C093650186E08093640123
:102210000280F381E02D84E691E00995CF91089545
:1022200086E0BCCF2191222309F4BBCF9F5FB9CFB9
:10223000CF93DF93EC01EA85FB85309719F06C852D
:102240007D8509958B810E94BD0B8C810E94C40BFA
:102250000E94A61086E0FE0111928A95E9F7DF91AF
:10226000CF910895CF93DF93EC018D8181FD15C04F
:1022700082608D838091FB039B81892B8093FB037C
:102280008C810E94CB0B0E94A610E885F9853097BF
:1022900021F06C857D85CE0109951092BA031092CC
:1022A000B9038D8180FD03C0CE010E941811DF911A
:1022B000CF91089580911701877F8093170182E065
:1022C0000E94BD0B8091170184FF06C08F7E809312
:1022D000170182E00E94CB0B8091170185FF06C099
:1022E0008F7D8093170180E20E94CB0B0E94A61085
:1022F000089590E080E00E946F0690E080E00E94E8
:1023000059061092FB030E94A61086E0E0E5F2E079
:10231000DF011D928A95E9F710924A021092490254
:1023200010924B020E94210808950E940F0D809385
:10233000FA030E94791108958091FA03982F9670FC
:10234000963021F488600E9495110895877FFBCF15
:1023500021E030E001C0220F8A95EAF720958091B4
:10236000FA0382230E94951108959091F1018095BE
:1023700089238093F101282F277091F4282F082EAC
:10238000000C330B9217130659F09091C70392FF7C
:1023900007C08595859585950E94A8110E94D10B4F
:1023A00008959091C70392FB222720F9281769F01E
:1023B00080FB92F99093C7038091C6039091C70365
:1023C0000E948B0F82E00E94B511089521E030E059
:1023D00001C0220F8A95EAF78091FA03822B0E94AE
:1023E000951108959091C70392FF10C098E0899FBE
:1023F00090011124622B6093F1010E94E6110E946A
:1024000018069093F0018093EF0108950E94E61161
:102410000895809315020E94791108951092DF02A9
:1024200080911901E6E6F1E0882361F08091C6030E
:1024300087FF08C08EE1DF011D928A95E9F70E94AF
:102440007911089586E0F7CFAAE2B0E0EAE2F2E17E
:102450000C944D3581EF93E02091F100DC012D9338
:10246000CD01B3E0893F9B07B9F78091F203833038
:1024700009F472C0B8F4813009F449C0823009F41B
:10248000B3C08091E80083FF96C28091F1039091E0
:10249000F2039A3008F08FC2E92FF0E0E950FA4CCD
:1024A0000C9431358A3009F48EC08B3009F471C038
:1024B000893039F78091F103813219F78091F50362
:1024C0009091F603009711F00297D9F68091E800F9
:1024D000877F8093E8008091E80082FF38C0909168
:1024E000F3008091F200029731F48091F100813085
:1024F00011F0863021F48091F1008093CD0380911A
:10250000E8008B778093E8000E94DE04BACF8091C8
:10251000F103813A09F0B5CF8091E800877F80937D
:10252000E8008091F5039091F603892B61F460E255
:102530008EEC93E070E00E948A058091E8008B7732
:102540008093E8009ECF60E090E080E0F3CF809140
:10255000F9038111C0CF95CF8091F103813A09F041
:1025600090CF8091F5039091F603892B09F089CFE4
:102570008091E800877F8093E8008091E80080FFE9
:10258000FCCF809119018093F1008091E8008E7753
:10259000B9CF8091F103813209F073CF8091F503B7
:1025A0009091F603892B09F06CCF8091E800877F2A
:1025B0008093E8000E94DE048091F3038093190168
:1025C0000E940E125ECF8091F103813209F059CF43
:1025D0008091E800877F8093E8000E94DE0480916C
:1025E000F4038093CC034DCF8091F103813A09F03D
:1025F00048CF8091E800877F8093E8008091E800D1
:1026000080FFFCCF8091CC03BECF803899F0823818
:1026100009F0D1C18091F5038F70873008F0CBC1EC
:102620008093E9008091EB0085FB882780F9109268
:10263000E90006C08091EE039091EF039111826052
:102640009091E800977F9093E8008093F1001092BA
:10265000F1008091E8008E77AAC1882309F498C11F
:10266000823009F0A8C18091F30381119BC1809150
:10267000F5038F702FEF280F263008F09CC1809350
:10268000E9002091EB0020FF8DC1933031F480915F
:10269000EB0080628093EB0085C19091EB0090612C
:1026A0009093EB0021E030E001C0220F8A95EAF719
:1026B0002093EA001092EA008091EB008860EACF54
:1026C000811179C11091F3031F778091E300807825
:1026D000812B8093E3008091E800877F8093E8005E
:1026E0000E94DE048091E80080FFFCCF8091E3002F
:1026F00080688093E30082E0111183E08093F90306
:102700005AC18058823008F056C12091F3033091AD
:10271000F4032C3DE3E03E07A1F583E08A838AE2DF
:1027200089834FB7F894DE01139620E03EE051E232
:10273000E32FF0E050935700E49120FF03C0E295AF
:10274000EF703F5FEF708E2F90E0EA30C0F0C796D9
:102750008D939D932F5F243159F74FBF8091E800EF
:10276000877F8093E8006AE270E0CE0101960E94C4
:102770008A058091E8008B778093E8001CC1C096A1
:10278000E7CF8091F5039091F603432F552743300F
:10279000510509F44AC078F54130510509F485C066
:1027A0008BE590E0EAEBF6E04230510509F003C119
:1027B0002091E800277F2093E8002091F7033091D3
:1027C000F8038217930708F49C0140E021153105B6
:1027D00009F070C041116EC08091E80082FDC9CF40
:1027E0008091F903882329F2853019F28091E8005D
:1027F00083FFF2CFBECF4132510509F447C04232C8
:10280000510509F0D8C08330910508F0D4C0FC010F
:10281000EE0FFF1FEA5AFE4F0190F081E02D8D5A16
:102820009E4FDC018C9190E01DC033272130310593
:10283000E9F02115310579F022303105F9F0233026
:10284000310509F0B8C0E7E2F7E0E4918E2F90E09F
:10285000E7E2F7E007C0E5E8F7E0E4918E2F90E0CB
:10286000E5E8F7E0009709F4A6C0A2CFE5E6F7E0B7
:10287000E4918E2F90E0E5E6F7E0F4CFE5E4F7E0B1
:10288000E4918E2F90E0E5E4F7E0ECCF8330910502
:1028900008F091C0880F991FFC01E45AFE4F019087
:1028A000F081E02D89E090E083CF82E190E0E5E1E6
:1028B000F7E07ECF8091F903882309F45ACF853061
:1028C00009F457CF8091E80083FD53CF8091E80051
:1028D00082FD82CF8091E80080FF78CF9091F30055
:1028E0008091F2002115310519F08830910550F0E2
:1028F00041E0089709F040E08091E8008E778093EE
:10290000E80064CF44914093F100319621503109A1
:102910000196E8CF803809F04EC08091E800877FAB
:102920008093E8008091F0038093F10092CE8111B2
:1029300042C01091F3031230F0F58091E800877FD8
:102940008093E8001093F0030E94DE04112311F03D
:1029500084E005C08091E30087FDFACF81E0809399
:10296000F90342E061EC81E00E94FD0442E261EC87
:1029700084E00E94FD0442E261EC82E00E94FD04DA
:1029800042E260EC83E00E94FD048091F90313C0F1
:102990008091F303813079F481E0933009F080E095
:1029A0008093EF031092E9008091E800877F809385
:1029B000E8000E94DE048091E80083FF0AC0809155
:1029C000E800877F8093E8008091EB00806280932D
:1029D000EB00AA96E3E00C946935E0E0F3E0128E98
:1029E000138E8FEA90E09183808325E0248F84EF1B
:1029F00091E0938382838AE090E09583848344E12D
:102A000050E05783468348E050E0518740879387E2
:102A100082876EE170E0758764879787868780E597
:102A200090E0918B808B538B428B48E250E0558B2A
:102A3000448B42E350E0578B468B48EC50E0518F7B
:102A4000408F158E178E168E91A380A322A30E940D
:102A5000040F0E940E121092C7031092C603E7ECF7
:102A6000F3E08081846080838091C6039091C703E6
:102A70000E948B0F0E94CB0D0895AEE1B0E0E3E41D
:102A8000F5E10C944335A090D902B090DA0281E0D0
:102A900090E09093DA028093D9029EE8C92E93E0E9
:102AA000D92E00E0760110E015C0F4012591349193
:102AB000472D612F802F0E944C0F82E0880E911CC1
:102AC0007394EEE07E12F1CFFCE1EF0EF11C1F5F7C
:102AD000153019F04701712CE8CF0F5F8CE8C80E54
:102AE000D11C0430F9F60E94ED141A8219821C825E
:102AF0001B821E821D8218861F8288EC90E09A87B6
:102B000089874AE050E06BE772E0CE0101960E94AF
:102B1000DD354AE050E065E872E0CE0101960E94A2
:102B2000DD358AE0F82E8E01055F1F4FF8018F2DED
:102B300011928A95E9F74AE050E06FE872E0C80127
:102B40000E94DD354AE050E069E972E0C8010E9468
:102B5000DD35065F1F4FF8011192FA94E9F78FEF08
:102B60009FEF9A8F898F87E08E8F4AE050E063EA6B
:102B700072E0C8010E94DD354AE050E06DEA72E083
:102B8000C8010E94DD354AE050E067EB72E0C80101
:102B90000E94DD354AE050E061EC72E0C8010E941D
:102BA000DD35B092DA02A092D9026E96EDE00C9477
:102BB0005F3580E00E94720F60E086E290E00E9444
:102BC000B9350E943D150E943C0F81E00E94720FB2
:102BD0000895CF92DF92EF92FF928FEF9FEF4430F4
:102BE000510508F46AC0FB01C080D180E280F38007
:102BF0000E940E128091C603C0FA80F9B701A601A7
:102C0000769567955795479540FB81F9B701A601E1
:102C100022E076956795579547952A95D1F740FB21
:102C200082F9B701A60133E07695679557954795E8
:102C30003A95D1F740FB83F9B701A601E4E0769518
:102C4000679557954795EA95D1F740FB84F9B70109
:102C5000A601F5E07695679557954795FA95D1F7D2
:102C600040FB85F9B701A601A6E0769567955795D3
:102C70004795AA95D1F740FB86F9B701A601B7E0C1
:102C80007695679557954795BA95D1F740FB87F9A3
:102C90008093C6038091C703D0FA80F9D1FACC247F
:102CA000C0F8C0FA81F98093C7038091C603909160
:102CB000C7030E948B0F90E080E0FF90EF90DF90C1
:102CC000CF9008950E940E122FEF84E39CE02150D4
:102CD00080409040E1F700C0000088E19AE00FB624
:102CE000F894A895809360000FBE90936000FFCF8A
:102CF000882321F00E94BD0B0E94A610089588230E
:102D000039F09091FB03982B9093FB030E94A6103F
:102D10000895882321F00E94C40B0E94A6100895F4
:102D2000882321F00E94CB0B0E94A61008958823CF
:102D300079F19CEF980F913A28F40E94F20B0E94CF
:102D4000A610089590E2980F983050F4877091E0A3
:102D500001C0990F8A95EAF7892F0E94C40BEFCF23
:102D60009BE5980F933028F490E080E00E946F0676
:102D7000089598E5980F973128F490E080E00E943C
:102D800059060895803F20F00E9448080E942108BB
:102D90000895FF920F931F93CF93DF93F82E009126
:102DA000B7031091B8030115110509F449C0109239
:102DB000B6031092B5031092B2031092B303D80178
:102DC0001696CD91DC919E013A9521153F4108F46C
:102DD000D07ED1E0C11101C0D0E0D8011996ED91AB
:102DE000FC911A97309731F01B966D917C9180E0A1
:102DF0000995D823DD2339F08CEF8C0F813A30F51B
:102E00008C2F0E94F20BFF2099F0E091B703F09114
:102E1000B803808584FD0CC08091B403882341F001
:102E2000808191819C0121503109203B3D45A0F0DA
:102E30000E94A6101092B8031092B7031092B40328
:102E4000C801CDB7DEB7E5E00C9467350E94A61047
:102E50008C2F0E949716D7CF0E949206E9CFCF936E
:102E6000DF93EC010E949716CE010E94DE0C9E01BA
:102E7000205E31092830310510F0CD2B29F40E9455
:102E80008916DF91CF9108950E947816FACFCF93DB
:102E9000C82F8823C1F18CEF8C0F813AB0F5809157
:102EA0001901882301F18091C60387FF1CC0EC2F14
:102EB000E695E695E695F0E0EC59FE4F828190E0CC
:102EC0004C2F477021E030E002C0220F331F4A959B
:102ED000E2F782239323892B79F08C2F0E94F20B47
:102EE0000E94A61009C0E6E6F1E08191C817A9F397
:102EF00081E0EC36F807C9F76C2F84E691E00E9478
:102F000024060E94A610CF91089580E28C0F88308D
:102F100048F4C77081E001C0880FCA95EAF70E94A3
:102F2000CB0BEFCFEBE5EC0FE33040F4F0E0EE5DE0
:102F3000FE4F808190E00E946F06E5CFE8E5EC0F40
:102F4000E73150F4F0E0EE0FFF1FEB5DFE4F8081A4
:102F500091810E945906D7CFC03FA8F28C2F0E94C2
:102F600063090E942108CFCF1F93CF93DF93182FBF
:102F7000C0912003D0912103893321F0C0911E0319
:102F8000D0911F03812F0E944717209739F4812F7A
:102F90000E949716DF91CF911F9108958FE99FE0CE
:102FA0000197F1F700C000002197EFCFB0E0A0E05B
:102FB000ECEDF7E10C944635EC018AE0A82E28816F
:102FC000222309F48FC02130C9F599818A8191307B
:102FD00021F422960E94B41705C0923029F422965B
:102FE0000E9447172196EBCF933021F422960E943E
:102FF0009716F8CF943011F02196F4CF229630E056
:1030000020E0AE014F5F5F4F8053990B8A309105EE
:1030100050F02150310930F38FE99FE00197F1F72B
:1030200000C00000F6CFA29EB001A39E700D112437
:103030009C01260F371F8981EA01E3CFE22FF0E0E0
:10304000E754F84FB490822F86958695869590E048
:10305000FC01E755F84FE4902770F12C022E02C0D6
:10306000F594E7940A94E2F731E0E322FF24FC01AF
:10307000E756F84FC490D12C022E02C0D594C794C5
:103080000A94E2F731E0C322DD24FC01E757F84F50
:10309000049110E002C0159507952A95E2F701709A
:1030A0001127E114F10419F081EE0E944717C114B1
:1030B000D10419F086EE0E9447178B2D0E94B41799
:1030C000C114D10419F086EE0E949716E114F104A0
:1030D00019F081EE0E9497160115110509F482CFAF
:1030E0008CE278CFCDB7DEB7EAE00C946235CF93AF
:1030F000DF93EC010E94DE0C9E01205E3109283036
:10310000310510F0209741F40E9490168C2F0E94F8
:103110004717DF91CF9108950E947F16F7CF66235E
:1031200029F02091FB0322602093FB039C01305681
:10313000211540E2340720F0305E2115304108F4BB
:1031400099270E9477180895B0E0A0E0EAEAF8E134
:103150000C9449357C018B01D42E8091170182FF9C
:103160008CC0C0912603D0912703CE15DF0521F036
:10317000E114F10409F081C0809117018B7F8093E5
:10318000170181FD73C08091240390912503A8014C
:10319000481B590B81E0209115013091160142170F
:1031A000530708F480E08170F82E80911701F0FA3F
:1031B00081F980931701FE0183E0F695E7958A95E2
:1031C000E1F7EE71FF27E052FD4F20813181AE0122
:1031D0004F70552781E090E002C0880F991F4A95F3
:1031E000E2F7FF2009F444C0822B932B9183808364
:1031F0008091DF0281FF08C0809117018061809378
:10320000170182E00E94C40B8091DF0285FF08C095
:103210008091170180628093170180E20E94C40BA5
:103220006F2DCE010E948F18DD2031F080911B039D
:1032300085FF02C086FF3BC080911E0390911F0353
:103240000E94C10D80912603909127039C01305666
:10325000211540E2340720F0305E2115304108F49A
:1032600099270E942F170E945A111DC081E09BCF01
:103270008095909582239323B9CFC7019927970111
:103280003056211540E2340728F0305E21153041D8
:1032900008F0C7010E942F17809126039091270301
:1032A0008E159F0501F31093250300932403CDB7DA
:1032B000DEB7E7E00C9465354F925F926F927F9294
:1032C000AF92BF92CF92DF92EF92FF920F931F9334
:1032D000CF93DF93CDB7DEB72B970FB6F894DEBF51
:1032E0000FBECDBF83E70E945F348E010F5F1F4F7B
:1032F0008BE0D8011D928A95E9F778015E01BCE068
:10330000AB0EB11C6801412C512C32010E948C344F
:10331000882309F45FC030E1431637E253066104A5
:10332000710408F064C00E947834D6018C93FFEFDA
:10333000CF1ADF0ACA14DB0449F78B85803E09F0F7
:1033400059C0E9E1F2E0065F1F4F20E0D701119676
:103350008C91B0E88B9FC0011124D7013C91832B45
:10336000419151918417950709F021E0DF011297EF
:103370008D939C93B2E0EB0EF11C0E151F0531F7F7
:103380002223C1F181E0809318020E9418069093D5
:1033900017028093160280911602909117020E94E4
:1033A000FD05059758F14AE050E069E172E08FE3CE
:1033B00092E00E947E35892BB9F18AE0E9E1F2E0E2
:1033C000AFE3B2E001900D928A95E1F781E01092AF
:1033D000180215C0EFEF4E1A5E0A6E0A7E0AF1E17E
:1033E0004F16F7E25F066104710408F48FCFF6010F
:1033F00010829DCF809118028111CDCF80E02B9655
:103400000FB6F894DEBF0FBECDBFDF91CF911F91F5
:103410000F91FF90EF90DF90CF90BF90AF907F9093
:103420006F905F904F90089580E0D1CF68EE7EEF6F
:1034300090E080E00E94D73560E082E090E00E945A
:10344000B93560E083E090E00E94B9351092150232
:1034500060E084E090E00E94B93564E082E290E0B0
:103460000E94B93560E085E090E00E94B93560E0E7
:1034700086E090E00E94B9356FEF87E090E00E940F
:10348000B93540E050E0BA0188E090E00E94CB35C9
:1034900060E08DE090E00E94B93540E050E0BA0174
:1034A00088E190E00E94CB3560E087E190E00E94E7
:1034B000B93540E050E0BA018CE190E00E94CB3594
:1034C00070E060E080E290E00E94D73540E050E09C
:1034D000BA0188E190E00E94CB3580E00E94720F33
:1034E0000E94D91540E050E0BA018FE090E00E94C0
:1034F000CB3540E050E0BA0183E190E00E94CB354B
:103500000895A7E0B0E0E7E8FAE10C943E357C01CD
:10351000DC0113964D915C91149711966C91119763
:103520008C910E9403078111EEC061E0C7010E94E7
:10353000B90E8C01F70182818823E1F08091B903F3
:103540009091BA030097B1F00817190799F0FEE0BF
:103550008F9FC0011124FC01E959FD4F2081246097
:1035600020838E599D4FDC010D931C930E943211D4
:103570001092FB03F7018281882311F40C941C2321
:10358000C80182519F45409710F00C9410238FEF93
:1035900093E00E94AB358111A6C07EEED72ED00EEF
:1035A0000BEC12E0D11036C019821A821B821C82E9
:1035B00099249A9468012FEFC21AD20AC8010E9476
:1035C000AB3589831A82882309F48DC0813009F0D4
:1035D0007FC0580132E0A30EB11CC6010E94AB357A
:1035E000C82E8A83882309F47EC0C5010E94AB35AA
:1035F000D82E8FEF8C0D8330D8F4580143E0A40E01
:10360000B11CDB82DD2021F0CE0101960E94D6178D
:103610008501D0CF0115F4E01F0709F464C0C8018B
:103620000E94AB35811101C0DA940F5F1F4FBACFF2
:103630008BEF8C0D833030F5C8010396DB825C0183
:10364000DD2031F3580154E0A50EB11C0E94AB35CA
:103650008C838823E9F28B819C818130AFEF9A07BC
:1036600010F0982F8827B6E0CB1631F0E7E0CE16A1
:1036700031F00E945E2ACCCF0E94382AC9CF0E9426
:10368000BF29C6CFF4E0CF12C3CF580124E0A20E69
:10369000B11CC80103960E94AB35DD2021F18823BF
:1036A00011F18150990B989E9001999E300D112433
:1036B0004D2D4150550BCA01820F931F019708F4FD
:1036C000A7CFAFE9BFE01197F1F700C00000F6CF38
:1036D000CE0101960E94D61756019ACF81E00E9432
:1036E000E6110E949C118091F101877061F0D70171
:1036F00012968C91882339F08091C70382FF03C012
:1037000082E00E94B5112796E2E10C945A3581E0DF
:103710000E94A811E6CF82E0FBCF823009F0CAC731
:1037200080915C0290915D02892B09F4C3C72EE061
:103730002C9DC0012D9D900D1124FC01E959FD4FD8
:1037400020812E7F20838E599D4F0E943211B2C757
:1037500081E080930001C7CF80910001882309F4A4
:1037600063C6480120EE821A9108409014028091AD
:103770008701482A8091DF02482A38E083169104A5
:1037800008F086C098012770332781E090E001C0DF
:10379000880F2A95EAF7552009F477C0482AD701FF
:1037A0008D919C910E94470C21E030E0F90102C00C
:1037B000EE0FFF1F8A95E2F7FF83EE832090B70399
:1037C0003090B80360908401709085011D822D8136
:1037D000E22FF0E0EE0FFF1FED56FD4FC080D180CD
:1037E000C114D10409F484C6411005C0D601129653
:1037F0008C91811189C0F601838190E02E813F81F7
:1038000082239323892B09F47FC08085982F97709A
:1038100009F487E038E08316910408F053C055207E
:1038200009F44CC086958170882309F46DC0D601D7
:10383000AD90BC900A151B0519F4552009F464C01D
:10384000C214D30409F460C0D6011D96ED91FC9119
:10385000309721F08081882309F456C0642DC60179
:103860000E94E306882309F44FC00A151B0509F0DE
:1038700041C70115110509F442C7511042C7A614EA
:10388000B70409F041C0512C3CC78095482287CF2E
:10389000552009F416C610938501009384010E94F7
:1038A0000C066093AE037093AF038093B0039093C4
:1038B000B1031092B6031092B50371CF82FB882733
:1038C00080F9B2CF552001F18170AECF0E949716DA
:1038D00036C70497813A910558F46A2D84E691E041
:1038E0000E942406552009F49FC50E94A610FBCE15
:1038F0000E94A6108FE39CE90197F1F700C0000039
:103900008A2D0E944717EECF9D819F5F9D835FCFD9
:10391000FC01208131810217130709F07EC5511087
:103920007EC51092B40380E00E94C9167DC5902F19
:10393000812FC2C5F901858181FFEEC5C9010E94B1
:103940001811EAC58091170181608093170112C692
:10395000809117018E7F809317010E945A110AC629
:10396000809117018F7E013E110531F0053E110552
:10397000C9F4809117018F7D809317018091170101
:1039800080FF07C6D70112968C910832110528F5E1
:103990000E31110508F072C00430110580F5811157
:1039A000F4C5F7C5C8019056811540E2940720F090
:1039B000905E8115904110F78091170182FFE9C553
:1039C00080911D0381FDE5C522E332E040E0B601B0
:1039D00090E080E00E94A418DCC50933110558F47A
:1039E0000D32110518F40B321105C9F690911B0325
:1039F00092FDD5CF08C004361105C1F3D0CF909108
:103A00001B0394FDCCCF882309F4A8C08091140235
:103A10009091DF02892B8D7FB1F1109227031092D4
:103A2000260380911B0381FD2EC0F80143E0F6952B
:103A3000E7954A95E1F7EE71FF27E052FD4F9801B7
:103A40002F70332781E090E002C0880F991F2A95DC
:103A5000E2F7809590952081318182239323918391
:103A6000808360E0C8010E948F18809114028D7FCE
:103A70000E94A90B82E00E94B51135CE90911B03E4
:103A800093FD8DCFC0CF88E0F701A2E3B2E00190B3
:103A90000D928A95E1F7109234021092360210923C
:103AA0003502809126039091270308171907D1F555
:103AB00020911B0325FF36C03091170131FF02C052
:103AC00026FF30C020912403309125035601A21A0D
:103AD000B30AB7010E94AD0FA816B90618F5809178
:103AE000DF0281FF08C08091170180618093170178
:103AF00082E00E94C40B8091DF0285FF08C08091A4
:103B0000170180628093170180E20E94C40B6091CC
:103B100017016695617080912603909127030E949A
:103B20008F18E1CD809114029091DF02982B2091A3
:103B3000170191FB21F9209317018D7F0E94A90B9A
:103B40001093270300932603D0922503C0922403E9
:103B5000809117018460809317018CCF970140E01A
:103B6000B601C8010E94A418BECD053A4DE5140760
:103B700009F423C5C0F501368DE5180709F41DC504
:103B800006315CE5150709F059C18091DF02982FD5
:103B90009A7A20911A0320FF04C0482F447409F038
:103BA00090E021FF04C0482F417109F090E022FF0E
:103BB00004C0482F487809F090E023FF03C08272C8
:103BC00009F090E0332309F42FC181E0911101C085
:103BD00080E08093860169E2911165E384E691E0DB
:103BE0000E94240682CEC8018D5A9D45039740F657
:103BF000E4C407308CE5180709F4C6C08091C603F9
:103C0000806108309CE5190780F18091C6038064CB
:103C10002CC00D30ACE51A0709F4C4C090F48091B3
:103C2000C6038E7F0B30ECE51E07F9F08091C603CA
:103C30008C600C30FCE51F07C0F08091C6038D7FBF
:103C400014C00F302CE5120709F4BCC008F4AEC054
:103C500000314CE5140709F4B9C08091C6038F7B8D
:103C600001315CE5150709F0D2C48093C603CFC4C7
:103C70000F3F8CE5180709F4B7C098F50A3FACE58B
:103C80001A0709F479C0C0F40431ECE51E0709F401
:103C9000B9C008F4A5C005312CE5120709F0B7C476
:103CA0008091C60382FB992790F921E0922790FB2F
:103CB00082F990FB83F9D9CF0C3F3CE5130709F457
:103CC00079C008F45DC00D3F5CE5150709F476C0C6
:103CD0000E3F8CE5180709F09AC48091C7038360F2
:103CE0003CC001369DE5190709F497C090F40130F6
:103CF000BDE51B0709F48FC008F47AC060E002300C
:103D0000FDE51F0709F083C48EE090E00E94B935FD
:103D10007EC40D3A2DE51207E9F060F49091C603D8
:103D2000892F8E7F90FF8160053A4DE5140709F4D5
:103D30009CCF6DC40E3A5DE5150781F10F3A8DE514
:103D4000180709F064C49091C703892F877F93FFF8
:103D5000886003C08091C70388608093C70357C4FD
:103D60008091C603826081CF8091C60384607DCF3D
:103D70008091C603886079CF8091C7038160EDCFC1
:103D80008091C7038260E9CF8091C60380626DCFC6
:103D90000E940E128091C603806867CF8091C7038E
:103DA000877FDBCF8091C6038B7F5FCF8091C60377
:103DB000877F5BCF8091C7038E7FCFCF8091C70372
:103DC0008D7FCBCF8091C6038F7E4FCF8091C6036E
:103DD0008F7D4BCF0E940E128091C6038F7745CF07
:103DE0008091C603837F41CF8091C7038C7FB5CF7D
:103DF0008091C703982F909591708E7F892B90FBAF
:103E000081F9ABCF0E940E129091C603892F97FBC8
:103E100087F980582ACF61E077CF9091C603892F28
:103E20008F7E94FF806121CF80918601811104C033
:103E300089E20E94F20B59CD85E3FBCF0A359DE55F
:103E4000190709F46BC008F044C00115BCE51B0755
:103E500009F44AC00E3D1C4509F453C0F7018681A0
:103E60009781009709F45EC00E94100A182F092F4D
:103E7000F701D280C580C2943FE0C3228091F10156
:103E80008770C1F0AD2CDD20B1F0892F807F8034A8
:103E900021F080E2810F883068F08091C70382FFB3
:103EA00009C082E00E94B5118091F1018770AA24B7
:103EB000A3948111A12C902E92942FE09222FBE0EA
:103EC000F91508F4BCC0E92DF0E0EF5FF94C0C9453
:103ED00031350C35FDE51F07B9F010F1073A1D45E6
:103EE00009F0BCCF0E9462160E940E124FEF54E3FD
:103EF0008CE0415050408040E1F700C000000E943B
:103F0000EC050E94161AEECF8091C70382FB88272A
:103F100080F991E089270E94D111A0CF81E0FBCFE9
:103F200080E0F9CF828100811181882369F0C80186
:103F30000E943D0ED82E682FC8010E947B0CB8014C
:103F40008D2D0E94200E90CFC8010E94470CD82EC4
:103F5000F6CF202F2F70B22E802F807F19F0B294D1
:103F600090EFB922DD20A9F0BB2059F080E2810F4B
:103F7000883010F0111107C08B2D0E94CB0B0E94CE
:103F8000A610812F5AC08091FB03B82AB092FB0380
:103F9000F6CF812F0E949716BB2009F450C080E213
:103FA000810F883010F0111104C08B2D0E94C40BBA
:103FB00003C08B2D0E94BD0B0E94A61040C0302F65
:103FC0003F70B32E802F807F803219F0B29480EF43
:103FD000B822112321F1113009F4AEC0DD2009F41B
:103FE000B7C0CC2009F47FC020E0D7014C911196D6
:103FF0005C91119712966C91129713967C9113977E
:1040000014968C910E94960E80911D0381FDB9CF6C
:10401000F701858180FFB5CF8F70858364C0809163
:10402000C70382FD40C0DD20C1F1BB2029F08B2DEC
:104030000E94CB0B0E94A61080E00E944717A92D7A
:10404000A850BB0B149710F40E948506812F902F67
:104050000E94B20C8111C2C1109289011092880194
:10406000AA20B1F08091F10180FD12C0D701129613
:104070001C928595859585950E94E611C7010E9441
:10408000811A8091F1018595859585950E94A811E9
:1040900060E0C7010E94B90E36CB80E00E949716FF
:1040A000BB2069F282CFDD2011F1C11004C08091E4
:1040B00014028B2919C041E0C41206C08091140279
:1040C0008B290E94A90BBBCF80911C03823078F30F
:1040D000C812EDCF0E949E0B909187018B2D892BEA
:1040E0008913809387018B2D0E949016A8CFC11051
:1040F00003C00E949E0B17C080911C0351E0C512A3
:1041000016C0823008F49BCF8091DF028B2109F426
:1041100096CF0E949E0B909187018B2D80958923CD
:104120008913809387018B2D0E94891688CF823056
:1041300000F3C812DECF83CF80912203DD2021F06F
:104140008C1508F47CCFCFCFC81608F078CFEBCF12
:10415000CC2049F38091200390912103193321F061
:1041600080911E0390911F030E94C10D812F0E9418
:10417000971665CF802F86958695837069F081307C
:1041800009F05DCF812F902F9370D11002C090E085
:1041900080E00E94590653CF812F902F9370D11049
:1041A00002C090E080E00E946F0649CF812FDD20A1
:1041B00029F00E9463090E94210841CF0E9448080B
:1041C000FACF802F837091F5D11039CF412F4295CE
:1041D00046954770440F440F812F8F70042E01C005
:1041E000880F0A94EAF7212F207114FF07C02FE0EF
:1041F00030E001C0220F4A95EAF72095302F36951E
:1042000036953370323069F050F4409115023130F8
:1042100029F0822B84230E94091211CF842B822B38
:10422000FACF282B809115028227F5CF8695DD20C5
:1042300011F0802F8170882309F401CF412F42951E
:1042400046954770440F440F812F8F70042E01C094
:10425000880F0A94EAF7212F207114FF07C02FE07E
:1042600030E001C0220F4A95EAF72095302F3695AD
:1042700036953370323069F050F44091FA033130A2
:1042800029F0822B84230E949511D9CE842B822B76
:10429000FACF282B8091FA038227F5CFF02FFF70F9
:1042A000BF2EDD2029F08F2F0E94E611812F1CCF19
:1042B000812F0E9489168B2D0E94A811C0CE123F1B
:1042C00089F160F4103FB9F0113F81F0DD2009F46D
:1042D00080C0C11056CE802F8F7128C0133F49F186
:1042E000143FA1F78091C70382FD2FC0802F8F71EB
:1042F000DD2011F31BC080912203DD2079F0C81668
:1043000008F09DCE202F2F7181E090E001C0880F32
:104310002A95EAF79091FA038927B5CF8C1508F40E
:104320008ECEF0CF802F8F71D110C6CF0E94E611B4
:1043300086CE80E0DD2009F4A6CF81E0902F9F712A
:1043400001C0880F9A95EAF79ECF80911C038230B6
:1043500040F1DD20D1F09091F1019770943041F45B
:104360000E94D10B802F8F710E94A811A12C67CEC3
:10437000C816E0F7202F2F71B22E822F0E94E6116F
:1043800063E08B2D0E94F211F1CFC81630F00E942D
:10439000D10B64E0802F8F71F5CF81E00E94B511C1
:1043A000E5CFDD2059F0302F3F71B32E832F0E94CF
:1043B000E61163E08B2D0E94F21141CE81E00E9454
:1043C000B51141E04C1508F03ACE82E00E94B511DB
:1043D00036CEC110BFCE802F8F716ECFDD2019F089
:1043E000C1103ACE3DCEC11037CE20E0F70140815A
:1043F00051816281738184810E94960E80911D0398
:1044000083FF2ACE8091880190918901029709F05B
:1044100023CE812F0E94B4171FCE552029F0DC0136
:1044200018968C9185FF7FCAC80197558F3F9105DB
:1044300011F008F071C05801BB24BEE00B9FF001E1
:1044400011249F012E593D4F6901D70112968C917D
:10445000E959FD4F908180FB90F99083882309F4FE
:1044600069CA0E9418069093310280933002F601C7
:1044700082818F5F82838091FB039091DF02892B81
:1044800083838091140284830680F781E02D309726
:1044900031F0D6011C966D917C91C60109958EE094
:1044A0008A9DF0018B9DF00D1124EE59FD4F858101
:1044B00081FF3DCA90E080E09093B9038093BA03F6
:1044C0002BC080918401909185010817190781F410
:1044D00010928501109284011092AE031092AF03E6
:1044E0001092B0031092B1031092B6031092B5036C
:1044F0008091B7039091B803009709F495CFA8E095
:104500008A16910408F004CA642D0E94E306811102
:1045100003C081E00E94C91680911B0380FF39C04F
:104520000E9418066C01D70112968C91882309F419
:1045300017CA8091170182FF08C022E332E040E0F1
:10454000B60190E080E00E94A4180B31BCE51B0787
:1045500009F4F8C90C31ECE51E0709F4F9C990918A
:104560001701892F8E7F90FF81600A31FCE51F07BC
:1045700009F4F1C9C8019056811520E2920728F08C
:10458000905E8115904108F0F9C9109227031092AE
:104590002603F7013281332309F405C10330FDE519
:1045A0001F0708F0E2CA0A3F2CE5120730F4C801E1
:1045B00082509C45449708F0E3CA0E94E00E909315
:1045C000C7038093C60302319CE5190709F402CCA6
:1045D00008F04ECB0930BCE51B0709F4D9CB08F035
:1045E00018CB0530FCE51F0709F4C2CB08F001CB5E
:1045F00003303CE5130709F4B3CB08F0B5CB809149
:10460000C603816002305CE5150709F42ECB80916A
:10461000C6039091C7030E948B0F0E940E1263C8BD
:104620000031FFE51F0709F459C801312FE51207D2
:1046300009F040C082E053C800313FE5130709F498
:1046400066C801314FE5140709F465C86801E7E55C
:10465000DE1AFFEFCF16D10409F060F568E572E0CD
:104660008C2D0E94990F892B29F58EE08C9DF001ED
:104670008D9DF00D1124EE59FD4F8281813009F09E
:104680004CC88091580290915902892B99F08091E1
:104690005A0290915B02892B69F080915C029091A3
:1046A0005D0220915E0230915F02822B932B892B59
:1046B00009F43DC8D70112965C90552009F44CC806
:1046C0000F35BDE51B0709F443C80036EDE51E07AD
:1046D00051F00E35FDE51F0709F03EC8809100013D
:1046E000882309F435C81092000180E00E94C916A1
:1046F0000C94731BA114B10409F0C1C8512CB12C46
:10470000A12C80E00E94C916D092B803C092B703D2
:1047100081E08093B403F60185818093B203511048
:104720000EC0AB2861F0F601808191819C0124507C
:104730003109213A310508F0C9C80E94F20BD601AF
:104740001696AD90BC90C5019A9581159F4110F4C5
:10475000E0EEBE2277247394C5010197803B9D450E
:1047600008F0712CD6011996ED91FC911A973097AB
:1047700031F01B966D917C9181E00995782277202C
:1047800079F0F601868197810E94DE0C8093B30355
:10479000C501F8E08F16910408F09BC80E949206AC
:1047A0000E94A6109FC806318CE5180709F4EDC9D0
:1047B00055CBB0E0A0E0EFEDF3E20C9448358091EA
:1047C000AA01807F31F48091A701C091EE0181118F
:1047D00007C0CDB7DEB7E8E00C9464352196C7700A
:1047E0008091AD018C17A9F3F090A501E090A6018E
:1047F000C090A801D090A901A6016E2D8F2D0E9416
:104800000307D0E08111EACF8E0183E0000F111F72
:104810008A95E1F7F801E255FE4F81818E11DECFD6
:1048200080818F11DBCF82818111D8CFE380F4802A
:10483000EC18FD0860E085EA91E00E94B90E65EA97
:1048400071E00E94AD0FE816F90640F68091AA01CA
:104850008F7080618093AA01F801ED54FE4F808132
:104860008F708061808385EA91E00E94811A0E94A6
:104870003D0CAFCFA5E1B0E0E0E4F4E20C944135AB
:104880008C0185E0F801DE01519601900D928A9528
:10489000E1F7D8015C9011966C9011971296EC900C
:1048A00012971396CD90DC9060E085EA91E00E942B
:1048B000B90E85EAA82E81E0B82E8090A8019090CC
:1048C000A901A4016091A6018091A5010E9403079E
:1048D0008111A8C1F090A701F601E819F9094F016B
:1048E00060E0FF2009F44BC1C5010E94B90EB5017B
:1048F0000E94AD0F7090AA018816990608F0F2C0C8
:104900004091A8015091A901B090A501A090A601E5
:10491000872D807F6A2D09F08CC08B2D0E940307A4
:10492000FE2C811127C0D80111968C9111978A1104
:1049300021C08C918B111EC02091AB013091AC0134
:1049400016968D919C9128173907A1F4E11012C099
:10495000872D8F7080618093AA0185EA91E00E9483
:10496000811A8091AA01F80185838F2D6596EFE069
:104970000C945D35A601662D852D0E940307D82E67
:1049800081E08E25D11080E080FF18C04E2D662D6D
:10499000852D0E941D0C882389F080911D0380FFC6
:1049A0000DC085EA91E00E94811A88E0E5EAF1E015
:1049B000DF011D928A95E9F7F12CD7CF81E08E2592
:1049C000D11080E0B82FB170CB2E80FF29C04E2DC2
:1049D000662D852D0E941D0CD82E811121C0598A6B
:1049E0006A8A89899A890E946C0E292F22952F70D4
:1049F000223050F0243078F49F7051F0F801958106
:104A0000907F31F4FD2CB1CF9F7011F08823D1F34A
:104A1000805E8830B8F3C8010E94811ADC2CF2CF86
:104A2000EE2009F4A2CF8091AA0181608093AA01AF
:104A3000C3CF8B2D0E940307811124C0D80111968A
:104A40008C9111978A111EC08C918B111BC02091E3
:104A5000AB013091AC0116968D919C911797281758
:104A6000390781F4E1100EC015967C92C8010E94AE
:104A7000811A88E0F801A5EAB1E001900D928A95CB
:104A8000E1F773CFC8010E94790E882339F1EE2037
:104A900029F18091AA018032A0F02091A5013091E6
:104AA000A6013A8729871B86DD86CC868E87809172
:104AB000AB019091AC01988B8F87CE0109960E9433
:104AC000811A88E0F801A5EAB1E001900D928A957B
:104AD000E1F70E94D923FF24F39447CFC8010E9435
:104AE000811AF9CF872D807F09F45BCF9090A501C3
:104AF0008090A6014091A8015091A901682D892DAF
:104B00000E94030781111CC0F8018181881118C01F
:104B10008081891115C02091AB013091AC01868153
:104B200097812817390761F4E1100AC07582C8011E
:104B30000E94811A88E0D5011D928A95E9F715CF68
:104B4000C8010E94790E882349F2EE2039F2809143
:104B5000AA01803208F4B5CF2091A5013091A601B9
:104B60003A8329831B82DD82CC828E838091AB01C4
:104B70009091AC0198878F83CE010196A0CF85EAF2
:104B800091E00E94B90E65EA71E00E94AD0F8816AF
:104B9000990680F6FE2CEE2009F4A0CFE090A50146
:104BA000D090A6014091A8015091A9016D2D8E2DA4
:104BB0000E940307811128C0F80181818D1124C052
:104BC00080818E1121C02091AB013091AC01868192
:104BD000978128173907C1F480911D0382FD49CFC1
:104BE0009091AA0190FD45CF907F09F442CF80912A
:104BF000AA018583903F09F439CF982F907F905F69
:104C00008F70892B858332CFC8010E94790E811164
:104C100058CF8091AA0181608093AA01C8010E94A7
:104C2000811AA3CEEE2009F459CFC8010E94790E53
:104C3000F82E882309F452CF88E0F801A5EAB1E004
:104C400001900D928A95E1F78091A5019091A601BE
:104C50000E946C0E0E94D92388CEA0E1B0E0E3E36D
:104C6000F6E20C944E3529873A874B875C876D872F
:104C70007E878F87988BCE0109960E943A248111F6
:104C80002FC088E0FE013996DE01119601900D9249
:104C90008A95E1F74C855D856A8589850E940307C1
:104CA00081111EC0A091AD01B0E0CD0101968770C9
:104CB00099272091EE0128171906E1F093E0AA0F39
:104CC000BB1F9A95E1F7A255BE4F98E0FE013196C1
:104CD00001900D929A95E1F78093AD010E943D0CF1
:104CE0008091EE019091AD01891312C06096E2E0CF
:104CF0000C946A350E940E121092AD011092EE01D2
:104D000088E0E5EAF1E0DF011D928A95E9F7E8CF56
:104D1000B8E08B9FC001112482559E4F0E943A2417
:104D2000882321F38091EE0190E001968770992706
:104D30008093EE01D5CFEF92FF920F931F93CF9305
:104D4000DF9380912B03882361F0C0912A038CE0CC
:104D5000F82E80912B03C81748F010922B03109265
:104D60002A03CDB7DEB7E6E00C946635EE24E39473
:104D7000EC0EE0922A030C2F10E0CF9DE0011124ED
:104D8000C45DDC4F4B815C81698188810E9403078F
:104D900081111DC08E819F81892B21F48885998581
:104DA000019651F4288139814A815B816C817D8132
:104DB0008E819F810E942D26F09EF001F19EF00DC4
:104DC0001124E45DFC4F148213821092FB03CE2D5C
:104DD000C0CF1092A5031092A403109218018091E5
:104DE000A3038093A2030E943C070E949B26089580
:104DF000B0E0A0E0EEEFF6E20C943F35C091A203E4
:104E000097E0892E01E010E02CE0322E3EEF932E49
:104E1000442443948091A3038C1309C00E949B26D1
:104E20000E943C07CDB7DEB7E1E10C945B35D0E0E2
:104E3000FE01EE0FFF1FE656FC4F80819181889E98
:104E4000D001899EB00D1124A457BC4F14962C910B
:104E50001497211158C050902B03ECE2F3E030E09E
:104E600020E0712C5D01251508F04BC0E284F3842D
:104E7000D501CD90DC906FEF7FEF612C462D50E097
:104E8000DA01AA0FBB1FAC0DBD1D0D90BC91A02D6A
:104E9000109731F0EA16FB0609F4BA016394EECFDD
:104EA0006F3F7607A9F1D80102C0AA0FBB1F6A9510
:104EB000E2F77A2AB801062C02C0660F771F0A941F
:104EC000E2F7AB014150510974161506F9F4329E10
:104ED000F001339EF00D1124E45DFC4F889ED0015B
:104EE000899EB00D1124A457BC4F12962D913C9170
:104EF00013973783268390829182918780871596B6
:104F00004C920E940E072196C37084CF14821382A4
:104F10002F5F3F4F3C96A7CFA9E1B0E0E2E9F7E26F
:104F20000C943E35942F498B252F5A8B6B8B7C8BA1
:104F30008D8B4C895D89622F892F0E940307811117
:104F400009C080918801909189010196909389010F
:104F5000809388018B8981111092FB031D861E8628
:104F60001F86188A85E0FE017196DE011996019070
:104F70000D928A95E1F78091C70382FF1EC0809150
:104F8000020390910303892BC1F00E94180620911F
:104F9000EF013091F001821B930B209102033091BD
:104FA00003038217930720F08091F10182FFE3C190
:104FB0000E94D80B81110E949E0B4C855D856A85ED
:104FC00089850E940307811111C061E0CE01099615
:104FD0000E94B90E6C018B8527EFC2162CE5D20614
:104FE00081F4882321F181E08093180129853A8595
:104FF0004B855C856D857E858F8598890E942D26E1
:10500000C7C038EFC3163CE5D30629F4882379F0EE
:105010000E94E926EBCF49EFC4164CE5D40639F4DB
:10502000882329F0809118018111F2CFDCCF0CE8A0
:1050300013E0512C312C212C88248394912C3EEFA9
:10504000432EF80140815181AA24AA94BA2C20E071
:10505000822F90E0FC01EE0FFF1FE40FF51F60812F
:1050600071816115710551F0C616D70609F45C010E
:105070002F5FEECF22242394312CE3CFF12CFFEFCE
:10508000AF16BF0609F449C0F8014481F090180139
:105090008F2D411180E0F82FF170FF2EF801E5808F
:1050A00086819B85992309F4F5C0FF2009F4F2C09D
:1050B0006090160370901703E11013C0A4010A2C2E
:1050C00001C0440F0A94EAF7842B86838091280359
:1050D000909129038615970520F470922903609218
:1050E0002803C40102C0880F991F2A95E2F701978F
:1050F000F80126812817190681F48091A403909164
:10510000A503009709F448C00E94FD0568167906BA
:1051100008F042C021E0F80124835F28095F1F4F97
:10512000F1E02F16310409F0A5CF8B85882309F40F
:105130000DC1552009F40AC10E9418069093A503D9
:105140008093A40380912B03883010F591E0980F91
:1051500090932B0398E0FE013996DE0111960190A1
:105160000D929A95E1F72CE0829FC0011124845D95
:105170009C4F28E0FE013196DC0101900D922A95AA
:10518000E1F72FEF3FEFFC0131872087D386C286FE
:105190006996E2E10C945A358091A2035091A303E1
:1051A000982FF0E0E0E0851314C09093A203E0177D
:1051B000F10709F4B2CF90E0FC01EE0FFF1FE656B5
:1051C000FC4F318220820196837099278093A3033C
:1051D000A4CF682E712CF301EE0FFF1FE656FC4F93
:1051E0002081318147E0429FD001439FB00D1124BF
:1051F000A457BC4F6D917C911197798F688F40E0D7
:1052000020E030E0E32FF0E0EE0FFF1F688D798D96
:10521000E60FF71FA080B180A114B104E1F0F801FE
:105220000190F081E02DFF8BEE8B20E005C0A616EB
:10523000B70609F44F2D2F5FE22FF0E0EE0FFF1FAE
:105240006E897F89E60FF71F608171816115710595
:1052500071F73F5FD7CF4423D1F0F801231708F04F
:10526000FD0121E024830E171F0721F49093A20370
:10527000F42E53CF981305C0AE17BF0711F49F5FEC
:10528000937093012F5F3F4F822F83708CCFF0E09C
:10529000E0E0F7CF90E0E11020C0B40102C0660F5B
:1052A000771F2A95E2F79B01215031098217930756
:1052B00031F4442309F448C0C1010E940E07C4011F
:1052C0000A2C01C0880F0A94EAF7982F9095F801EC
:1052D000868189238683FE2C20CF9C010A2C02C064
:1052E000359527950A94E2F7A90141705527BC012D
:1052F0006150710986239723892B11F5452B01F104
:10530000F80182819381892BC1F01B821C821D824E
:105310001E8249824A820E9418068160582F9D830E
:105320008C83F801828193818F83988729813A81C8
:105330004B816D817E810E942D26F8011582BFCFA1
:10534000F22FF170EF2EBBCFEF2CB9CF9091A203CB
:105350008091A303981731F00E94F826552009F494
:1053600045CE16CF0E949B261092A5031092A4034F
:105370000E943C07F3CF82E00E94B51119CEA5E050
:10538000B0E0E5ECF9E20C944E359093DC028093AA
:10539000DB02811520E2920730F40E942F17259638
:1053A000E2E00C946A3580EF89838A831B820E9435
:1053B00018068160782F9D838C8349815A816B8187
:1053C0008D810E948C27EBCF0F931F93CF93DF9398
:1053D0008C01EB0168E572E08C2F0E94990F892BFC
:1053E000A1F480911E0390911F030E94C10DDD273F
:1053F000CA5ADD4F8881F801128218828330F1F099
:1054000048F4813059F0823081F0DF91CF911F91C3
:105410000F9108958430B9F08530B9F78091580222
:1054200090915902009789F306C080915A02909199
:105430005B02009799F30E94BF29E7CF80915C023D
:1054400090915D02F6CF80915E0290915F0200978D
:1054500091F7209158023091590280915A0290910F
:105460005B0221153105F1F2009729F7C901E3CF5D
:10547000A5E0B0E0EEE3FAE20C944E359093DC0246
:105480008093DB02811520E2920730F40E947718A6
:105490002596E2E00C946A3580EF89838A8381E067
:1054A0008B830E9418068160782F9D838C834981AD
:1054B0005A816B818D810E948C27EACFCF93DF9335
:1054C000EC010E94382A80911E0390911F030E94D4
:1054D000C10DCE010E94BF29DF91CF9108950F9396
:1054E0001F93CF93DF938C01862F68E572E00E94B3
:1054F000990F892BB1F4C0915802D091590220978D
:1055000081F0F8018281833051F4CE010E945E2A3D
:10551000CE010E945E2ACE010E945E2A02C0843023
:10552000D0F7DF91CF911F910F9108950F931F93A3
:10553000CF93DF938C01EB0168E572E08C2F0E9422
:10554000990F892B09F05CC0FE01FF27D801129644
:105550008C911297EA5AFD4F8130B9F415969C91BF
:1055600092FF02C080830AC090FFFCCF82E080835C
:1055700080915A0290915B020097B9F48091580291
:10558000909159020097E1F110C08230B9F515965B
:105590008C9182FD28C080FD0BC083E080838091C8
:1055A0005C0290915D02009701F10E94382A28C0A8
:1055B00084E0808380915E0290915F020097A9F75A
:1055C00080915802909159020097F9F00E945E2A4A
:1055D00080915A0290915B02009739F780915802AE
:1055E00090915902E2CF85E080838091580290919A
:1055F0005902009729F00E945E2AF0CF86E080834E
:10560000DF91CF911F910F91089580915A0290914F
:105610005B02B8CF1F920F920FB60F9211242F93F7
:105620003F934F935F936F937F938F939F93AF932A
:10563000BF93CF93DF93EF93FF93D091E900DF7097
:105640008091EC00C82FC17080FDC0E81092E90085
:105650008091F000877F8093F00078940E9424125C
:105660001092E9008091F00088608093F000CD2BCB
:10567000CF70C093E900FF91EF91DF91CF91BF917F
:10568000AF919F918F917F916F915F914F913F91DA
:105690002F910F900FBE0F901F9018951F920F9291
:1056A0000FB60F9211242F933F934F935F936F93F5
:1056B0007F938F939F93AF93BF93EF93FF938091CB
:1056C000E10082FF09C08091E20082FF05C0809165
:1056D000E1008B7F8093E1008091DA0080FF24C09D
:1056E0008091D80080FF20C08091DA008E7F809367
:1056F000DA008091D90080FF9DC080E189BD82E100
:1057000089BD09B400FEFDCF81E08093F90380914B
:10571000CB03811109C00E943C040E942F05809197
:10572000E20084608093E2008091E10080FF17C076
:105730008091E20080FF13C08091E2008E7F809311
:10574000E2008091E20080618093E2008091D800C5
:1057500080628093D80019BC85E08093F903809122
:10576000E10084FF2BC08091E20084FF27C080E12C
:1057700089BD82E189BD89B5982F917080FFFBCFEB
:105780008091D8008F7D8093D8008091E1008F7E3A
:105790008093E1008091E2008F7E8093E20080910F
:1057A000E20081608093E2008091F003882309F495
:1057B00047C084E08093F9038091F9038091E10070
:1057C00083FF27C08091E20083FF23C08091E10026
:1057D000877F8093E10082E08093F9031092F003C9
:1057E0008091E1008E7F8093E1008091E2008E7FC6
:1057F0008093E2008091E20080618093E20042E0C9
:1058000060E080E00E94FD048091F0008860809359
:10581000F000FF91EF91BF91AF919F918F917F9198
:105820006F915F914F913F912F910F900FBE0F900D
:105830001F90189519BC1092F9031092CB0374CFE6
:105840008091E30087FD93E09093F903B5CF7894BE
:105850001F921FB61F9211248F939F93AF93BF93F4
:105860008091C2039091C303A091C403B091C5037A
:105870000196A11DB11D8093C2039093C303A09311
:10588000C403B093C503BF91AF919F918F911F90B7
:105890001FBE1F9018951F921FB61F9211248F9341
:1058A0009F93AF93BF938091C103811113C08091E7
:1058B000C2039091C303A091C403B091C503419664
:1058C000A11DB11D8093C2039093C303A093C40391
:1058D000B093C503BF91AF919F918F911F901FBE51
:1058E0001F901895CDB7DEB7EE970FB6F894DEBFD0
:1058F0000FBECDBF85B7806885BF85B7806885BF7F
:1059000084B7877F84BF0FB6F894A8958091600014
:10591000886180936000109260000FBE80E890E084
:105920000FB6F89480936100909361000FBE8BECEA
:1059300099E090936301809362010E94F9070E94AD
:1059400057100E94CB0F0E94CB0D0E943C040E9476
:105950002F058091E20084608093E200789480912A
:10596000F9038823A1F01091E9001F709091EC00D9
:10597000892F817090FD80E8182B1092E9008091AA
:10598000E80083FD0E9424121F701093E90082E05A
:1059900084BD93E095BD9AEF97BD80936E000E9401
:1059A000C70E811102C00E94D91560E472E48FE035
:1059B00090E00E94393410921A021092190210924B
:1059C000400210923F0210921C0210921B02109291
:1059D00042021092410210921E0210921D02109279
:1059E0004402109243021092200210921F02109261
:1059F0004602109245021092220210922102109249
:105A0000480210924702509A519A849A859A589A5D
:105A1000599A8C9A8D9A90E080E00E94B335883E26
:105A20009E4F21F40E94C70E811102C00E94161AD7
:105A300082E090E00E94AB35809325020E94E00E48
:105A40009093C7038093C6030E945C193FEF46E71B
:105A500081E0315040408040E1F700C000000E94EA
:105A60005C1980913F0280FF08C06FEF7FEF90E0EC
:105A700080E00E94D7350E94EC0583E090E00E9410
:105A8000AB350E9409128091FA030E940F0D81E04C
:105A900091E09093BE038093BD031E019BE2290E0B
:105AA000311C8091F90300E112E1853009F491C0C5
:105AB0000E945C19F6E2AF2EF2E0BF2EAFE38A2E11
:105AC000A2E09A2E40E352E0D401F50121913191F8
:105AD0008D919D914E175F0709F485C028173907EE
